{
  "contractName": "Exercice6",
  "abi": [
    {
      "inputs": [],
      "stateMutability": "nonpayable",
      "type": "constructor"
    },
    {
      "inputs": [
        {
          "internalType": "uint256",
          "name": "",
          "type": "uint256"
        }
      ],
      "name": "nombres",
      "outputs": [
        {
          "internalType": "uint256",
          "name": "",
          "type": "uint256"
        }
      ],
      "stateMutability": "view",
      "type": "function",
      "constant": true
    },
    {
      "inputs": [
        {
          "internalType": "uint256",
          "name": "_nombre",
          "type": "uint256"
        }
      ],
      "name": "ajouterNombre",
      "outputs": [],
      "stateMutability": "nonpayable",
      "type": "function"
    },
    {
      "inputs": [
        {
          "internalType": "uint256",
          "name": "index",
          "type": "uint256"
        }
      ],
      "name": "getElement",
      "outputs": [
        {
          "internalType": "uint256",
          "name": "",
          "type": "uint256"
        }
      ],
      "stateMutability": "view",
      "type": "function",
      "constant": true
    },
    {
      "inputs": [],
      "name": "afficheTableau",
      "outputs": [
        {
          "internalType": "uint256[]",
          "name": "",
          "type": "uint256[]"
        }
      ],
      "stateMutability": "view",
      "type": "function",
      "constant": true
    },
    {
      "inputs": [],
      "name": "calculerSomme",
      "outputs": [
        {
          "internalType": "uint256",
          "name": "",
          "type": "uint256"
        }
      ],
      "stateMutability": "view",
      "type": "function",
      "constant": true
    },
    {
      "inputs": [],
      "name": "getTaille",
      "outputs": [
        {
          "internalType": "uint256",
          "name": "",
          "type": "uint256"
        }
      ],
      "stateMutability": "view",
      "type": "function",
      "constant": true
    }
  ],
  "bytecode": "0x608060405234801561001057600080fd5b506040518060a00160405280600160ff168152602001600260ff168152602001600360ff168152602001600460ff168152602001600560ff16815250600090600561005c929190610062565b506100d1565b8280548282559060005260206000209081019282156100a3579160200282015b828111156100a2578251829060ff16905591602001919060010190610082565b5b5090506100b091906100b4565b5090565b5b808211156100cd5760008160009055506001016100b5565b5090565b6105bc806100e06000396000f3fe608060405234801561001057600080fd5b50600436106100625760003560e01c80631f4440b0146100675780633a7d22bc146100855780637692fb5f146100b5578063bd92c667146100e5578063e66df33414610101578063f11b344e1461011f575b600080fd5b61006f61013d565b60405161007c9190610385565b60405180910390f35b61009f600480360381019061009a91906103d8565b610195565b6040516100ac9190610414565b60405180910390f35b6100cf60048036038101906100ca91906103d8565b610203565b6040516100dc9190610414565b60405180910390f35b6100ff60048036038101906100fa91906103d8565b610227565b005b610109610253565b6040516101169190610414565b60405180910390f35b6101276102b1565b6040516101349190610414565b60405180910390f35b6060600080548060200260200160405190810160405280929190818152602001828054801561018b57602002820191906000526020600020905b815481526020019060010190808311610177575b5050505050905090565b6000808054905082106101dd576040517f08c379a00000000000000000000000000000000000000000000000000000000081526004016101d49061048c565b60405180910390fd5b600082815481106101f1576101f06104ac565b5b90600052602060002001549050919050565b6000818154811061021357600080fd5b906000526020600020016000915090505481565b600081908060018154018082558091505060019003906000526020600020016000909190919091505550565b6000806000905060005b6000805490508110156102a9576000818154811061027e5761027d6104ac565b5b906000526020600020015482610294919061050a565b915080806102a19061053e565b91505061025d565b508091505090565b60008080549050905090565b600081519050919050565b600082825260208201905092915050565b6000819050602082019050919050565b6000819050919050565b6102fc816102e9565b82525050565b600061030e83836102f3565b60208301905092915050565b6000602082019050919050565b6000610332826102bd565b61033c81856102c8565b9350610347836102d9565b8060005b8381101561037857815161035f8882610302565b975061036a8361031a565b92505060018101905061034b565b5085935050505092915050565b6000602082019050818103600083015261039f8184610327565b905092915050565b600080fd5b6103b5816102e9565b81146103c057600080fd5b50565b6000813590506103d2816103ac565b92915050565b6000602082840312156103ee576103ed6103a7565b5b60006103fc848285016103c3565b91505092915050565b61040e816102e9565b82525050565b60006020820190506104296000830184610405565b92915050565b600082825260208201905092915050565b7f496e64657820696e6578697374616e742064616e73206c65207461626c656175600082015250565b600061047660208361042f565b915061048182610440565b602082019050919050565b600060208201905081810360008301526104a581610469565b9050919050565b7f4e487b7100000000000000000000000000000000000000000000000000000000600052603260045260246000fd5b7f4e487b7100000000000000000000000000000000000000000000000000000000600052601160045260246000fd5b6000610515826102e9565b9150610520836102e9565b9250828201905080821115610538576105376104db565b5b92915050565b6000610549826102e9565b91507fffffffffffffffffffffffffffffffffffffffffffffffffffffffffffffffff820361057b5761057a6104db565b5b60018201905091905056fea26469706673582212208748409126ac00d2bde65356d8f402d0e8fbd9e81f2f9c1c494e984c4b3be8f964736f6c63430008130033",
  "immutableReferences": {},
  "source": "// SPDX-License-Identifier: MIT\npragma solidity ^0.8.19;\n\ncontract Exercice6 {\n    uint[] public nombres;\n    \n    constructor() {\n        nombres = [1, 2, 3, 4, 5]; // Initialisation avec quelques valeurs\n    }\n    \n    // Ajouter un nombre au tableau\n    function ajouterNombre(uint _nombre) public {\n        nombres.push(_nombre);\n    }\n    \n    // Retourner l'lment  l'indice donn\n    function getElement(uint index) public view returns (uint) {\n        require(index < nombres.length, \"Index inexistant dans le tableau\");\n        return nombres[index];\n    }\n    \n    // Afficher tout le tableau\n    function afficheTableau() public view returns (uint[] memory) {\n        return nombres;\n    }\n    \n    // Calculer la somme des nombres dans le tableau\n    function calculerSomme() public view returns (uint) {\n        uint somme = 0;\n        for (uint i = 0; i < nombres.length; i++) {\n            somme += nombres[i];\n        }\n        return somme;\n    }\n    \n    // Obtenir la taille du tableau\n    function getTaille() public view returns (uint) {\n        return nombres.length;\n    }\n}",
  "sourcePath": "/Users/nadaaggour/Desktop/Dapp/contracts/Exercice6.sol",
  "compiler": {
    "name": "solc",
    "version": "0.8.19+commit.7dd6d404.Emscripten.clang"
  },
  "schemaVersion": "3.4.16",
  "updatedAt": "2025-07-27T13:17:39.241Z",
  "networkType": "ethereum",
  "devdoc": {
    "kind": "dev",
    "methods": {},
    "version": 1
  },
  "userdoc": {
    "kind": "user",
    "methods": {},
    "version": 1
  }
}