{
  "contractName": "Exercice4",
  "abi": [
    {
      "inputs": [
        {
          "internalType": "int256",
          "name": "nombre",
          "type": "int256"
        }
      ],
      "name": "estPositif",
      "outputs": [
        {
          "internalType": "bool",
          "name": "",
          "type": "bool"
        }
      ],
      "stateMutability": "pure",
      "type": "function",
      "constant": true
    }
  ],
  "bytecode": "0x608060405234801561001057600080fd5b50610129806100206000396000f3fe6080604052348015600f57600080fd5b506004361060285760003560e01c8063fa046abd14602d575b600080fd5b60436004803603810190603f91906099565b6057565b604051604e919060da565b60405180910390f35b60008082139050919050565b600080fd5b6000819050919050565b6079816068565b8114608357600080fd5b50565b6000813590506093816072565b92915050565b60006020828403121560ac5760ab6063565b5b600060b8848285016086565b91505092915050565b60008115159050919050565b60d48160c1565b82525050565b600060208201905060ed600083018460cd565b9291505056fea264697066735822122060f8c94c263c2235ff184949dc3d5bc46ab1f5807067b407a8321265f56533a464736f6c63430008130033",
  "immutableReferences": {},
  "source": "// SPDX-License-Identifier: MIT\npragma solidity ^0.8.19;\n\ncontract Exercice4 {\n    // Vérifier si un nombre est positif\n    function estPositif(int256 nombre) public pure returns (bool) {\n        return nombre > 0;\n    }\n}",
  "sourcePath": "/Users/nadaaggour/Desktop/Dapp/contracts/Exercice4.sol",
  "compiler": {
    "name": "solc",
    "version": "0.8.19+commit.7dd6d404.Emscripten.clang"
  },
  "schemaVersion": "3.4.16",
  "updatedAt": "2025-07-27T13:17:39.234Z",
  "networkType": "ethereum",
  "devdoc": {
    "kind": "dev",
    "methods": {},
    "version": 1
  },
  "userdoc": {
    "kind": "user",
    "methods": {},
    "version": 1
  }
}