{
  "contractName": "Exercice5",
  "abi": [
    {
      "inputs": [
        {
          "internalType": "uint256",
          "name": "nombre",
          "type": "uint256"
        }
      ],
      "name": "estPair",
      "outputs": [
        {
          "internalType": "bool",
          "name": "",
          "type": "bool"
        }
      ],
      "stateMutability": "pure",
      "type": "function",
      "constant": true
    },
    {
      "inputs": [
        {
          "internalType": "uint256",
          "name": "nombre",
          "type": "uint256"
        }
      ],
      "name": "estImpair",
      "outputs": [
        {
          "internalType": "bool",
          "name": "",
          "type": "bool"
        }
      ],
      "stateMutability": "pure",
      "type": "function",
      "constant": true
    }
  ],
  "bytecode": "0x608060405234801561001057600080fd5b50610200806100206000396000f3fe608060405234801561001057600080fd5b50600436106100365760003560e01c80631cee907f1461003b57806375afe2721461006b575b600080fd5b61005560048036038101906100509190610107565b61009b565b604051610062919061014f565b60405180910390f35b61008560048036038101906100809190610107565b6100b3565b604051610092919061014f565b60405180910390f35b6000806002836100ab9190610199565b149050919050565b6000806002836100c39190610199565b14159050919050565b600080fd5b6000819050919050565b6100e4816100d1565b81146100ef57600080fd5b50565b600081359050610101816100db565b92915050565b60006020828403121561011d5761011c6100cc565b5b600061012b848285016100f2565b91505092915050565b60008115159050919050565b61014981610134565b82525050565b60006020820190506101646000830184610140565b92915050565b7f4e487b7100000000000000000000000000000000000000000000000000000000600052601260045260246000fd5b60006101a4826100d1565b91506101af836100d1565b9250826101bf576101be61016a565b5b82820690509291505056fea2646970667358221220db5223dac9b94fad101b75b5e8a3cb11b8d6e25052184f7b55da41f864f9b9ec64736f6c63430008130033",
  "immutableReferences": {},
  "source": "// SPDX-License-Identifier: MIT\npragma solidity ^0.8.19;\n\ncontract Exercice5 {\n    // Vérifier la parité d'un nombre\n    function estPair(uint256 nombre) public pure returns (bool) {\n        return nombre % 2 == 0;\n    }\n    \n    // Fonction alternative pour vérifier si impair\n    function estImpair(uint256 nombre) public pure returns (bool) {\n        return nombre % 2 != 0;\n    }\n}",
  "sourcePath": "/Users/nadaaggour/Desktop/Dapp/contracts/Exercice5.sol",
  "compiler": {
    "name": "solc",
    "version": "0.8.19+commit.7dd6d404.Emscripten.clang"
  },
  "schemaVersion": "3.4.16",
  "updatedAt": "2025-07-27T13:17:39.237Z",
  "networkType": "ethereum",
  "devdoc": {
    "kind": "dev",
    "methods": {},
    "version": 1
  },
  "userdoc": {
    "kind": "user",
    "methods": {},
    "version": 1
  }
}