{
  "contractName": "Exercice1",
  "abi": [
    {
      "inputs": [
        {
          "internalType": "uint256",
          "name": "_nombre1",
          "type": "uint256"
        },
        {
          "internalType": "uint256",
          "name": "_nombre2",
          "type": "uint256"
        }
      ],
      "stateMutability": "nonpayable",
      "type": "constructor"
    },
    {
      "inputs": [],
      "name": "nombre1",
      "outputs": [
        {
          "internalType": "uint256",
          "name": "",
          "type": "uint256"
        }
      ],
      "stateMutability": "view",
      "type": "function",
      "constant": true
    },
    {
      "inputs": [],
      "name": "nombre2",
      "outputs": [
        {
          "internalType": "uint256",
          "name": "",
          "type": "uint256"
        }
      ],
      "stateMutability": "view",
      "type": "function",
      "constant": true
    },
    {
      "inputs": [],
      "name": "addition1",
      "outputs": [
        {
          "internalType": "uint256",
          "name": "",
          "type": "uint256"
        }
      ],
      "stateMutability": "view",
      "type": "function",
      "constant": true
    },
    {
      "inputs": [
        {
          "internalType": "uint256",
          "name": "_a",
          "type": "uint256"
        },
        {
          "internalType": "uint256",
          "name": "_b",
          "type": "uint256"
        }
      ],
      "name": "addition2",
      "outputs": [
        {
          "internalType": "uint256",
          "name": "",
          "type": "uint256"
        }
      ],
      "stateMutability": "pure",
      "type": "function",
      "constant": true
    },
    {
      "inputs": [
        {
          "internalType": "uint256",
          "name": "_nombre",
          "type": "uint256"
        }
      ],
      "name": "setNombre1",
      "outputs": [],
      "stateMutability": "nonpayable",
      "type": "function"
    },
    {
      "inputs": [
        {
          "internalType": "uint256",
          "name": "_nombre",
          "type": "uint256"
        }
      ],
      "name": "setNombre2",
      "outputs": [],
      "stateMutability": "nonpayable",
      "type": "function"
    }
  ],
  "bytecode": "0x608060405234801561001057600080fd5b506040516103b23803806103b283398181016040528101906100329190610082565b816000819055508060018190555050506100c2565b600080fd5b6000819050919050565b61005f8161004c565b811461006a57600080fd5b50565b60008151905061007c81610056565b92915050565b6000806040838503121561009957610098610047565b5b60006100a78582860161006d565b92505060206100b88582860161006d565b9150509250929050565b6102e1806100d16000396000f3fe608060405234801561001057600080fd5b50600436106100625760003560e01c80634d3e46e41461006757806356620c8a146100855780637a5ba404146100a3578063e3ecf258146100c1578063ec0cf20b146100dd578063f1d16438146100f9575b600080fd5b61006f610129565b60405161007c919061018f565b60405180910390f35b61008d610140565b60405161009a919061018f565b60405180910390f35b6100ab610146565b6040516100b8919061018f565b60405180910390f35b6100db60048036038101906100d691906101db565b61014c565b005b6100f760048036038101906100f291906101db565b610156565b005b610113600480360381019061010e9190610208565b610160565b604051610120919061018f565b60405180910390f35b600060015460005461013b9190610277565b905090565b60015481565b60005481565b8060018190555050565b8060008190555050565b6000818361016e9190610277565b905092915050565b6000819050919050565b61018981610176565b82525050565b60006020820190506101a46000830184610180565b92915050565b600080fd5b6101b881610176565b81146101c357600080fd5b50565b6000813590506101d5816101af565b92915050565b6000602082840312156101f1576101f06101aa565b5b60006101ff848285016101c6565b91505092915050565b6000806040838503121561021f5761021e6101aa565b5b600061022d858286016101c6565b925050602061023e858286016101c6565b9150509250929050565b7f4e487b7100000000000000000000000000000000000000000000000000000000600052601160045260246000fd5b600061028282610176565b915061028d83610176565b92508282019050808211156102a5576102a4610248565b5b9291505056fea264697066735822122030781e8e7b41a9556d71d521747b20a2988db3bc57ed565a66d93c085be4c6be64736f6c63430008130033",
  "immutableReferences": {},
  "source": "// SPDX-License-Identifier: MIT\npragma solidity ^0.8.19;\n\ncontract Exercice1 {\n    uint256 public nombre1;\n    uint256 public nombre2;\n    \n    constructor(uint256 _nombre1, uint256 _nombre2) {\n        nombre1 = _nombre1;\n        nombre2 = _nombre2;\n    }\n    \n    // Fonction view qui calcule la somme des variables d'tat\n    function addition1() public view returns (uint256) {\n        return nombre1 + nombre2;\n    }\n    \n    // Fonction pure qui prend deux nombres en paramtres\n    function addition2(uint256 _a, uint256 _b) public pure returns (uint256) {\n        return _a + _b;\n    }\n    \n    // Fonctions pour modifier les variables d'tat\n    function setNombre1(uint256 _nombre) public {\n        nombre1 = _nombre;\n    }\n    \n    function setNombre2(uint256 _nombre) public {\n        nombre2 = _nombre;\n    }\n}",
  "sourcePath": "/Users/nadaaggour/Desktop/Dapp/contracts/Exercice1.sol",
  "compiler": {
    "name": "solc",
    "version": "0.8.19+commit.7dd6d404.Emscripten.clang"
  },
  "schemaVersion": "3.4.16",
  "updatedAt": "2025-07-27T13:17:39.224Z",
  "networkType": "ethereum",
  "devdoc": {
    "kind": "dev",
    "methods": {},
    "version": 1
  },
  "userdoc": {
    "kind": "user",
    "methods": {},
    "version": 1
  }
}