{
  "contractName": "Payment",
  "abi": [
    {
      "inputs": [
        {
          "internalType": "address",
          "name": "_recipient",
          "type": "address"
        }
      ],
      "stateMutability": "nonpayable",
      "type": "constructor"
    },
    {
      "inputs": [],
      "name": "recipient",
      "outputs": [
        {
          "internalType": "address",
          "name": "",
          "type": "address"
        }
      ],
      "stateMutability": "view",
      "type": "function",
      "constant": true
    },
    {
      "stateMutability": "payable",
      "type": "receive",
      "payable": true
    },
    {
      "inputs": [],
      "name": "receivePayment",
      "outputs": [],
      "stateMutability": "payable",
      "type": "function",
      "payable": true
    },
    {
      "inputs": [],
      "name": "withdraw",
      "outputs": [],
      "stateMutability": "nonpayable",
      "type": "function"
    },
    {
      "inputs": [],
      "name": "getBalance",
      "outputs": [
        {
          "internalType": "uint256",
          "name": "",
          "type": "uint256"
        }
      ],
      "stateMutability": "view",
      "type": "function",
      "constant": true
    },
    {
      "inputs": [],
      "name": "getSender",
      "outputs": [
        {
          "internalType": "address",
          "name": "",
          "type": "address"
        }
      ],
      "stateMutability": "view",
      "type": "function",
      "constant": true
    }
  ],
  "bytecode": "0x608060405234801561001057600080fd5b506040516105c13803806105c1833981810160405281019061003291906100db565b806000806101000a81548173ffffffffffffffffffffffffffffffffffffffff021916908373ffffffffffffffffffffffffffffffffffffffff16021790555050610108565b600080fd5b600073ffffffffffffffffffffffffffffffffffffffff82169050919050565b60006100a88261007d565b9050919050565b6100b88161009d565b81146100c357600080fd5b50565b6000815190506100d5816100af565b92915050565b6000602082840312156100f1576100f0610078565b5b60006100ff848285016100c6565b91505092915050565b6104aa806101176000396000f3fe60806040526004361061004e5760003560e01c806312065fe01461009d5780633ccfd60b146100c85780635e01eb5a146100df57806366d003ac1461010a578063835c19f31461013557610098565b366100985760003411610096576040517f08c379a000000000000000000000000000000000000000000000000000000000815260040161008d90610332565b60405180910390fd5b005b600080fd5b3480156100a957600080fd5b506100b261013f565b6040516100bf919061036b565b60405180910390f35b3480156100d457600080fd5b506100dd610147565b005b3480156100eb57600080fd5b506100f461023e565b60405161010191906103c7565b60405180910390f35b34801561011657600080fd5b5061011f610246565b60405161012c91906103c7565b60405180910390f35b61013d61026a565b005b600047905090565b60008054906101000a900473ffffffffffffffffffffffffffffffffffffffff1673ffffffffffffffffffffffffffffffffffffffff163373ffffffffffffffffffffffffffffffffffffffff16146101d5576040517f08c379a00000000000000000000000000000000000000000000000000000000081526004016101cc90610454565b60405180910390fd5b60008054906101000a900473ffffffffffffffffffffffffffffffffffffffff1673ffffffffffffffffffffffffffffffffffffffff166108fc479081150290604051600060405180830381858888f1935050505015801561023b573d6000803e3d6000fd5b50565b600033905090565b60008054906101000a900473ffffffffffffffffffffffffffffffffffffffff1681565b600034116102ad576040517f08c379a00000000000000000000000000000000000000000000000000000000081526004016102a490610332565b60405180910390fd5b565b600082825260208201905092915050565b7f4c65206d6f6e74616e7420646f6974206574726520737570657269657572206160008201527f2030000000000000000000000000000000000000000000000000000000000000602082015250565b600061031c6022836102af565b9150610327826102c0565b604082019050919050565b6000602082019050818103600083015261034b8161030f565b9050919050565b6000819050919050565b61036581610352565b82525050565b6000602082019050610380600083018461035c565b92915050565b600073ffffffffffffffffffffffffffffffffffffffff82169050919050565b60006103b182610386565b9050919050565b6103c1816103a6565b82525050565b60006020820190506103dc60008301846103b8565b92915050565b7f5365756c206c652064657374696e61746169726520706575742072657469726560008201527f72206c657320666f6e6473000000000000000000000000000000000000000000602082015250565b600061043e602b836102af565b9150610449826103e2565b604082019050919050565b6000602082019050818103600083015261046d81610431565b905091905056fea26469706673582212201b92dfb506e3dbb893b45c822e6217c7b3ebdbeb0715af554e8955211ba4e00964736f6c63430008130033",
  "immutableReferences": {},
  "source": "pragma solidity ^0.8.19;\n\ncontract Payment {\n    address public recipient;\n    \n    constructor(address _recipient) {\n        recipient = _recipient;\n    }\n    \n    // Recevoir des paiements\n    function receivePayment() public payable {\n        require(msg.value > 0, \"Le montant doit etre superieur a 0\");\n    }\n    \n    // Retirer les fonds\n    function withdraw() public {\n        require(msg.sender == recipient, \"Seul le destinataire peut retirer les fonds\");\n        payable(recipient).transfer(address(this).balance);\n    }\n    \n    // Obtenir le solde du contrat\n    function getBalance() public view returns (uint) {\n        return address(this).balance;\n    }\n    \n    // Obtenir l'adresse de l'appelant\n    function getSender() public view returns (address) {\n        return msg.sender;\n    }\n    \n    // Permettre de recevoir des Ether directement\n    receive() external payable {\n        require(msg.value > 0, \"Le montant doit etre superieur a 0\");\n    }\n}",
  "sourcePath": "/Users/nadaaggour/Desktop/Dapp/contracts/Exercice8.sol",
  "compiler": {
    "name": "solc",
    "version": "0.8.19+commit.7dd6d404.Emscripten.clang"
  },
  "schemaVersion": "3.4.16",
  "updatedAt": "2025-07-27T13:17:39.246Z",
  "networkType": "ethereum",
  "devdoc": {
    "kind": "dev",
    "methods": {},
    "version": 1
  },
  "userdoc": {
    "kind": "user",
    "methods": {},
    "version": 1
  }
}