{
  "contractName": "Rectangle",
  "abi": [
    {
      "inputs": [],
      "stateMutability": "nonpayable",
      "type": "constructor"
    },
    {
      "inputs": [],
      "name": "afficheXY",
      "outputs": [
        {
          "internalType": "uint256",
          "name": "",
          "type": "uint256"
        },
        {
          "internalType": "uint256",
          "name": "",
          "type": "uint256"
        }
      ],
      "stateMutability": "view",
      "type": "function",
      "constant": true
    },
    {
      "inputs": [
        {
          "internalType": "uint256",
          "name": "dx",
          "type": "uint256"
        },
        {
          "internalType": "uint256",
          "name": "dy",
          "type": "uint256"
        }
      ],
      "name": "deplacerForme",
      "outputs": [],
      "stateMutability": "nonpayable",
      "type": "function"
    },
    {
      "inputs": [],
      "name": "la",
      "outputs": [
        {
          "internalType": "uint256",
          "name": "",
          "type": "uint256"
        }
      ],
      "stateMutability": "view",
      "type": "function",
      "constant": true
    },
    {
      "inputs": [],
      "name": "lo",
      "outputs": [
        {
          "internalType": "uint256",
          "name": "",
          "type": "uint256"
        }
      ],
      "stateMutability": "view",
      "type": "function",
      "constant": true
    },
    {
      "inputs": [],
      "name": "x",
      "outputs": [
        {
          "internalType": "uint256",
          "name": "",
          "type": "uint256"
        }
      ],
      "stateMutability": "view",
      "type": "function",
      "constant": true
    },
    {
      "inputs": [],
      "name": "y",
      "outputs": [
        {
          "internalType": "uint256",
          "name": "",
          "type": "uint256"
        }
      ],
      "stateMutability": "view",
      "type": "function",
      "constant": true
    },
    {
      "inputs": [],
      "name": "surface",
      "outputs": [
        {
          "internalType": "uint256",
          "name": "",
          "type": "uint256"
        }
      ],
      "stateMutability": "view",
      "type": "function",
      "constant": true
    },
    {
      "inputs": [],
      "name": "afficheInfos",
      "outputs": [
        {
          "internalType": "string",
          "name": "",
          "type": "string"
        }
      ],
      "stateMutability": "pure",
      "type": "function",
      "constant": true
    },
    {
      "inputs": [],
      "name": "afficheLoLa",
      "outputs": [
        {
          "internalType": "uint256",
          "name": "",
          "type": "uint256"
        },
        {
          "internalType": "uint256",
          "name": "",
          "type": "uint256"
        }
      ],
      "stateMutability": "view",
      "type": "function",
      "constant": true
    },
    {
      "inputs": [
        {
          "internalType": "uint256",
          "name": "_longueur",
          "type": "uint256"
        },
        {
          "internalType": "uint256",
          "name": "_largeur",
          "type": "uint256"
        }
      ],
      "name": "setDimensions",
      "outputs": [],
      "stateMutability": "nonpayable",
      "type": "function"
    }
  ],
  "bytecode": "0x608060405234801561001057600080fd5b50600a6014816000819055508060018190555050506005600281905550600380819055506104a6806100436000396000f3fe608060405234801561001057600080fd5b506004361061009e5760003560e01c806390c33c3f1161006657806390c33c3f146101385780639361c23214610156578063a56dfe4a14610172578063cd514e4014610190578063cfa8d7a4146101af5761009e565b80630c55699c146100a35780630e94ba83146100c15780637780c14f146100df5780637d975c4a146100fd57806383a443a614610119575b600080fd5b6100ab6101cd565b6040516100b89190610298565b60405180910390f35b6100c96101d3565b6040516100d69190610298565b60405180910390f35b6100e76101ea565b6040516100f49190610298565b60405180910390f35b610117600480360381019061011291906102e4565b6101f0565b005b610121610202565b60405161012f929190610324565b60405180910390f35b610140610213565b60405161014d9190610298565b60405180910390f35b610170600480360381019061016b91906102e4565b610219565b005b61017a61022b565b6040516101879190610298565b60405180910390f35b610198610231565b6040516101a6929190610324565b60405180910390f35b6101b7610242565b6040516101c491906103dd565b60405180910390f35b60005481565b60006003546002546101e5919061042e565b905090565b60025481565b81600281905550806003819055505050565b600080600254600354915091509091565b60035481565b81600081905550806001819055505050565b60015481565b600080600054600154915091509091565b60606040518060400160405280601181526020017f4a6520737569732052656374616e676c65000000000000000000000000000000815250905090565b6000819050919050565b6102928161027f565b82525050565b60006020820190506102ad6000830184610289565b92915050565b600080fd5b6102c18161027f565b81146102cc57600080fd5b50565b6000813590506102de816102b8565b92915050565b600080604083850312156102fb576102fa6102b3565b5b6000610309858286016102cf565b925050602061031a858286016102cf565b9150509250929050565b60006040820190506103396000830185610289565b6103466020830184610289565b9392505050565b600081519050919050565b600082825260208201905092915050565b60005b8381101561038757808201518184015260208101905061036c565b60008484015250505050565b6000601f19601f8301169050919050565b60006103af8261034d565b6103b98185610358565b93506103c9818560208601610369565b6103d281610393565b840191505092915050565b600060208201905081810360008301526103f781846103a4565b905092915050565b7f4e487b7100000000000000000000000000000000000000000000000000000000600052601160045260246000fd5b60006104398261027f565b91506104448361027f565b92508282026104528161027f565b91508282048414831517610469576104686103ff565b5b509291505056fea2646970667358221220d649daecc0a81da1a8308075df2e8c11983cbbc0d9b6937d16517855a6de67ef64736f6c63430008130033",
  "immutableReferences": {},
  "source": "// SPDX-License-Identifier: MIT\npragma solidity ^0.8.19;\n\n// Contrat abstrait Forme\nabstract contract Forme {\n    uint public x;\n    uint public y;\n    \n    constructor(uint _x, uint _y) {\n        x = _x;\n        y = _y;\n    }\n    \n    // Dplacer la forme\n    function deplacerForme(uint dx, uint dy) public {\n        x = dx;\n        y = dy;\n    }\n    \n    // Afficher les coordonnes\n    function afficheXY() public view returns (uint, uint) {\n        return (x, y);\n    }\n    \n    // Fonction virtuelle pure\n    function afficheInfos() public pure virtual returns (string memory) {\n        return \"Je suis une forme\";\n    }\n    \n    // Fonction virtuelle  implmenter\n    function surface() public view virtual returns (uint);\n}\n\n// Contrat concret Rectangle\ncontract Rectangle is Forme {\n    uint public lo; // longueur\n    uint public la; // largeur\n    \n    constructor() Forme(10, 20) {\n        lo = 5;\n        la = 3;\n    }\n    \n    // Implmentation de la fonction surface\n    function surface() public view override returns (uint) {\n        return lo * la;\n    }\n    \n    // Redfinition de afficheInfos\n    function afficheInfos() public pure override returns (string memory) {\n        return \"Je suis Rectangle\";\n    }\n    \n    // Afficher longueur et largeur\n    function afficheLoLa() public view returns (uint, uint) {\n        return (lo, la);\n    }\n    \n    // Modifier les dimensions\n    function setDimensions(uint _longueur, uint _largeur) public {\n        lo = _longueur;\n        la = _largeur;\n    }\n}",
  "sourcePath": "/Users/nadaaggour/Desktop/Dapp/contracts/Exercice7.sol",
  "compiler": {
    "name": "solc",
    "version": "0.8.19+commit.7dd6d404.Emscripten.clang"
  },
  "schemaVersion": "3.4.16",
  "updatedAt": "2025-07-27T13:17:39.244Z",
  "networkType": "ethereum",
  "devdoc": {
    "kind": "dev",
    "methods": {},
    "version": 1
  },
  "userdoc": {
    "kind": "user",
    "methods": {},
    "version": 1
  }
}